:020000040000FA
:0400000007EF00F016
:0A0008005F82BDED31F0EEEF31F044
:086238001200B60ECD6E12003B
:1062410015160308070605BD86BD84CA80CA82CA21
:10625100841200BA86BA84CA80CA82CA8412003FF4
:106261000E926E9368CF0E946E9568968096829684
:106271008412009280928292849286010EC26E0BE9
:106281000EC16EAB0EC06E12003AEC31F0D5EC319E
:10629100F030EC31F01CEC31F01DEC31F01200016A
:1062A1000E016E000166517FEC36F0000E016E00AA
:1062B1000165517FEC36F01200010E016E000164A0
:1062C100517FEC36F0000E016E000163517FEC3618
:1062D100F0120050EC31F05DEC31F06CC067F06D04
:1062E100C068F00001625171EC35F01200000E013E
:1062F1006E000164517FEC36F0010E016E00016306
:10630100517FEC36F0120050EC31F077EC31F06C4B
:10631100C067F06DC068F00001625171EC35F01298
:1063210000000E016E000166517FEC36F0010E0196
:106331006E000165517FEC36F0120091EC31F05D99
:10634100EC31F06CC067F06DC068F0000162517112
:10635100EC35F01200AFCF6EF000016F6B45EC3100
:10636100F036EC32F0B5EF31F0CFEC32F0B5EF3181
:10637100F0B5EF31F007EF00F00600F2A4C3EF3102
:10638100F0C5EF31F0D3EF31F0010E0001742700B9
:106391000E752376237723F294000ED66E000ED766
:1063A1006ED3EF31F05F921100DC0E0F6E050E100F
:1063B1006E000E116E000E126E61EC32F0DC0E0FEB
:1063C1006E050E106E000E116E000E126E98EC32FC
:1063D100F024EC31F02AEC31F01200410EF66E623D
:1063E1000EF76E000EF86E00EE60F010EE07F00989
:1063F10000F5CFEEFFE550E150FAE10001796B784D
:106401006B776B766B756B746B5F905F92000EF8B8
:106411006E0001ABEF31F0000E016E360E026E6EB2
:106421000E036E010E046E70C011F071C012F07295
:10643100C013F073C014F0040ED890113612361345
:10644100361436E82E1DEF32F011C005F012C006E9
:10645100F013C007F014C008F040EC33F001C00F96
:10646100F002C010F035EF32F01200000E016E00A4
:106471000166518FEC37F0000E016E000165518FFE
:10648100EC37F0000E016E000164518FEC37F00023
:106491000E016E000163518FEC37F0000E016E00AA
:1064A1000162518FEC37F0010E016E000161518FD5
:1064B100EC37F0010E016E000160518FEC37F012E4
:1064C10000000E016E360E026E6E0E036E010E049A
:1064D1006E0FC013F010C014F011C015F012C016E9
:1064E100F0020ED8901336143615361636E82E7291
:1064F100EF32F0040ED8901336143615361636E8FE
:106501002E7BEF32F013C005F014C006F015C00762
:10651100F016C008F040EC33F00104CB6E0FC070F0
:10652100F010C071F011C072F012C073F0120000CF
:106531000E016E360E026E6E0E036E010E046E0FAC
:10654100C013F010C014F011C015F012C016F00203
:106551000ED8901336143615361636E82EA9EF32BA
:10656100F0040ED8901336143615361636E82EB2CE
:10657100EF32F013C005F014C006F015C007F01695
:10658100C008F040EC33F00104CB6E0FC070F01086
:10659100C071F011C072F012C073F01200000161FD
:1065A100519FEC38F00009D8A4D9EF32F0DBEF327B
:1065B100F0F0EF32F0000160519FEC38F00009D8A3
:1065C100A4E5EF32F0E7EF32F0F0EF32F0020E0027
:1065D100016D6FEE0E6C6F6AEC31F03FEF33F0003E
:1065E1000161519FEC38F0E806D8A4FAEF32F0FCD3
:1065F100EF32F011EF33F0000160519FEC38F00001
:1066010009D8A406EF33F008EF33F011EF33F001AE
:106611000E00016D6FF40E6C6F9EEC31F03FEF33A5
:10662100F0000161519FEC38F00009D8A41BEF3351
:10663100F01DEF33F032EF33F0000160519FEC3881
:10664100F0E806D8A427EF33F029EF33F032EF3327
:10665100F0010E00016D6FF40E6C6F84EC31F03FB0
:10666100EF33F0000E00016D6F000E6C6F6AEC31BC
:10667100F03FEF33F03FEF33F03FEF33F012000024
:106681000E0A6E08BE49EF33F047EF33F055EF3392
:10669100F0081E071E061E056C000E0622072208C2
:1066A10022010E0A6E55EF33F004BE5CEF33F05A4F
:1066B100EF33F068EF33F0041E031E021E016C007D
:1066C1000E022203220422010E0A1A68EF33F0009F
:1066D1000E0B6E000E0C6E000E0D6E000E0E6E0592
:1066E10050061007100810D8B479EF33F07BEF3360
:1066F100F0BDEF33F0010E096E87EF33F0D890054E
:1067010036063607360836092A87EF33F008AE8C8D
:10671100EF33F08EEF33F07FEF33F092EF33F092FF
:10672100EF33F0D8900B360C360D360E360550018E
:106731005C065002580750035808500458D8A0A4CA
:10674100EF33F0A6EF33F0B1EF33F00550015E0601
:1067510050025A0750035A0850045A0B80B1EF33C4
:10676100F0D8900832073206320532092E92EF3303
:10677100F0BDEF33F0BDEF33F00A50D8B4C3EF33BF
:10678100F0C5EF33F0CFEF33F00E1E0D1E0C1E0BD4
:106791006C000E0C220D220E22CFEF33F00BC00144
:1067A100F00CC002F00DC003F00EC004F0D9EF33BD
:1067B100F01200573458345E6E5E50D8A4E3EF33C4
:1067C100F0E5EF33F0F1EF33F0000E556E000E56A9
:1067D1006E000E576E000E586E82EF34F082EF3469
:1067E100F055C059F056C05AF057C05BF058C05C24
:1067F100F0200E01EF34F0D8905C325B325A3259FE
:1068010032E82EFCEF33F059505D6E578EFF0E5576
:1068110016FF0E5616FF0E5716000E5816960E5EF0
:106821005E5EBE18EF34F016EF34F03CEF34F05EEC
:1068310050800A970FD8B020EF34F022EF34F030B7
:10684100EF34F0000E556E000E566E000E576E00BE
:106851000E586E82EF34F082EF34F030EF34F0D81E
:106861009058325732563255325E3E30EF34F06630
:10687100EF34F066EF34F01F0E5E6442EF34F04403
:10688100EF34F05AEF34F0000E556E000E566E00E4
:106891000E576E000E586E82EF34F082EF34F05ACC
:1068A100EF34F0D89055365636573658365E065A7C
:1068B100EF34F05E50D8A460EF34F062EF34F05260
:1068C100EF34F066EF34F066EF34F05D50D8B46C1D
:1068D100EF34F06EEF34F078EF34F0581E571E5657
:1068E1001E556C000E56225722582278EF34F0556F
:1068F100C055F056C056F057C057F058C058F082F6
:10690100EF34F012001D6E1D50D8B48AEF34F08CB4
:10691100EF34F0AEEF34F018BE93EF34F091EF3472
:10692100F0AEEF34F015C019F016C01AF017C01B05
:10693100F018C01CF0191E1A1E1B1E1C1E192A005D
:106941000E1A221B221C2219C01FF01AC020F01B94
:10695100C021F01CC022F0B8EF34F015C01FF016B2
:10696100C020F017C021F018C022F0B8EF34F015A4
:1069710050161017101810D8A4C1EF34F0C3EF341B
:10698100F0CFEF34F0000E156E000E166E000E17EC
:106991006E000E186E70EF35F070EF35F0960E1E2A
:1069A1006EDBEF34F01E2AD8902232213220321FC2
:1069B10032DBEF34F0000E1F14196E000E20141A92
:1069C1006E000E21141B6EFE0E22141C6E19501A3D
:1069D100101B101C10D8A4F0EF34F0F2EF34F0D3F8
:1069E100EF34F002EF35F002EF35F01E2A010E1FF1
:1069F10026000E202221222222D89022322132206A
:106A0100321F32000E1F14196E000E20141A6E0070
:106A11000E21141B6EFF0E22141C6E19501A101B2E
:106A2100101C10D8A417EF35F019EF35F0F6EF343C
:106A3100F025EF35F025EF35F01E06D8901F3620F2
:106A4100362136223625EF35F021BE2AEF35F02CDE
:106A5100EF35F036EF35F0020E1E6032EF35F034CF
:106A6100EF35F01DEF35F036EF35F01EB03BEF3569
:106A7100F03DEF35F040EF35F0219E40EF35F0D895
:106A8100901E321EC019F01A6A1B6A1C6A19C01CBA
:106A9100F01B6A1A6A196A19501F121A5020121B28
:106AA1005021121C5022121D50D8B45AEF35F05CFF
:106AB100EF35F066EF35F018BE63EF35F061EF3575
:106AC100F066EF35F0228E66EF35F01FC015F0202D
:106AD100C016F021C017F022C018F070EF35F01287
:106AE1000000016B6F68EF36F0040E0001685DD89D
:106AF100B07DEF35F07FEF35F07EEF36F00CEC3204
:106B0100F00FC015F010C016F0000E16BEFF0E17E4
:106B11006E186E010E83EC34F015C040F016C041C2
:106B2100F017C042F018C043F0000E276EC00E28C7
:106B31006E7F0E296E440E2A6E67C015F068C0166E
:106B4100F0176A186A000E83EC34F015C023F016B2
:106B5100C024F017C025F018C026F039EC3AF02314
:106B6100C03CF024C03DF025C03EF026C03FF049B6
:106B7100EC3CF03CC055F03DC056F03EC057F03FF4
:106B8100C058F0DAEC33F055C067F056C068F067D2
:106B9100C069F0020E00016917693B6947BD506980
:106BA10019DF0B6919BD6E67C069F0010E691769BC
:106BB1003BBD506919EF0B6919BD6E67C069F0687B
:106BC100C06AF0D8906A336933D8906A33693369FF
:106BD10051BE6E7EEF36F07EEF36F0040E685DD862
:106BE100B0F5EF35F0F7EF35F07EEF36F00CEC3223
:106BF100F00FC015F010C016F0000E16BEFF0E17F4
:106C01006E186E010E83EC34F015C040F016C041D1
:106C1100F017C042F018C043F0000E276EC00E28D6
:106C21006E7F0E296E440E2A6E67C015F068C0167D
:106C3100F0176A186A000E83EC34F015C023F016C1
:106C4100C024F017C025F018C026F039EC3AF02323
:106C5100C03CF024C03DF025C03EF026C03FF049C5
:106C6100EC3CF03CC055F03DC056F03EC057F03F03
:106C7100C058F0DAEC33F055C067F056C068F067E1
:106C8100C069F0020E00016917693B6947BA506992
:106C910019DF0B6919BA6E67C069F0010E691769CE
:106CA1003BBA506919EF0B6919BA6E67C069F06890
:106CB100C06AF0D8906A336933D8906A336933690E
:106CC10051BB6E7EEF36F07EEF36F07EEF36F00090
:106CD100016B51696F6A6B6A51000AD8B473EF3660
:106CE100F07EEF36F06951030AD8B4EEEF35F007C4
:106CF1000AD8B475EF35F07EEF36F01200046E2538
:106D0100EF37F001B002D0899801D089888EEF3732
:106D1100F001B002D0899A01D0898A8EEF37F00153
:106D2100B002D08B9001D08B808EEF37F001B00292
:106D3100D08B9201D08B828EEF37F001B002D08BD5
:106D41009401D08B848EEF37F001B002D08C90018A
:106D5100D08C808EEF37F001B002D08C9201D08CB4
:106D6100828EEF37F001B002D08C9401D08C848EEA
:106D7100EF37F001B002D08C9601D08C868EEF37C0
:106D8100F001B002D08B9C01D08B8C8EEF37F001DB
:106D9100B002D08B9E01D08B8E8EEF37F001B00206
:106DA100D08C9801D08C888EEF37F001B002D08C56
:106DB1009A01D08C8A8EEF37F001B002D08C9C0101
:106DC100D08C8C8EEF37F001B002D08C9E01D08C2C
:106DD1008E8EEF37F001B002D08A9001D08A808E7A
:106DE100EF37F001B002D08A9201D08A828EEF375C
:106DF100F001B002D08A9401D08A848EEF37F0017D
:106E0100B002D08A9601D08A868EEF37F001B002A7
:106E1100D08A9801D08A888EEF37F001B002D08AEB
:106E21009A01D08A8A8EEF37F001B002D08A9C0194
:106E3100D08A8C8EEF37F001B002D08A9E01D08AC1
:106E41008E8EEF37F08EEF37F00450026E036A0337
:106E510050000AD8B42FEF37F08EEF37F002500010
:106E61000AD8B482EF36F0010AD8B489EF36F003BC
:106E71000AD8B490EF36F0010AD8B497EF36F0078C
:106E81000AD8B49EEF36F0010AD8B4A5EF36F00364
:106E91000AD8B4ACEF36F0010AD8B4B3EF36F00F2C
:106EA1000AD8B4BAEF36F0010AD8B4C1EF36F0030C
:106EB1000AD8B4C8EF36F0010AD8B4CFEF36F007DC
:106EC1000AD8B4D6EF36F0010AD8B4DDEF36F003B4
:106ED1000AD8B4E4EF36F0010AD8B4EBEF36F01F6C
:106EE1000AD8B4F2EF36F0010AD8B4F9EF36F0035C
:106EF1000AD8B400EF37F0010AD8B407EF37F0072A
:106F01000AD8B40EEF37F0010AD8B415EF37F00301
:106F11000AD8B41CEF37F08EEF37F01200046E354B
:106F2100EF38F001B002D0929801D092889EEF38EC
:106F3100F001B002D0929A01D0928A9EEF38F0010E
:106F4100B002D0949001D094809EEF38F001B0024D
:106F5100D0949201D094829EEF38F001B002D09487
:106F61009401D094849EEF38F001B002D095900145
:106F7100D095809EEF38F001B002D0959201D09566
:106F8100829EEF38F001B002D0959401D095849E95
:106F9100EF38F001B002D0959601D095869EEF387A
:106FA100F001B002D0949C01D0948C9EEF38F00196
:106FB100B002D0949E01D0948E9EEF38F001B002C1
:106FC100D0959801D095889EEF38F001B002D09508
:106FD1009A01D0958A9EEF38F001B002D0959C01BC
:106FE100D0958C9EEF38F001B002D0959E01D095DE
:106FF1008E9EEF38F001B002D0939001D093809E25
:10700100EF38F001B002D0939201D093829EEF3815
:10701100F001B002D0939401D093849EEF38F00137
:10702100B002D0939601D093869EEF38F001B00262
:10703100D0939801D093889EEF38F001B002D0939D
:107041009A01D0938A9EEF38F001B002D0939C014F
:10705100D0938C9EEF38F001B002D0939E01D09373
:107061008E9EEF38F09EEF38F00450026E036A03F3
:1070710050000AD8B43FEF38F09EEF38F0025000CC
:107081000AD8B492EF37F0010AD8B499EF37F00378
:107091000AD8B4A0EF37F0010AD8B4A7EF37F00748
:1070A1000AD8B4AEEF37F0010AD8B4B5EF37F00320
:1070B1000AD8B4BCEF37F0010AD8B4C3EF37F00FE8
:1070C1000AD8B4CAEF37F0010AD8B4D1EF37F003C8
:1070D1000AD8B4D8EF37F0010AD8B4DFEF37F00798
:1070E1000AD8B4E6EF37F0010AD8B4EDEF37F00370
:1070F1000AD8B4F4EF37F0010AD8B4FBEF37F01F28
:107101000AD8B402EF38F0010AD8B409EF38F00315
:107111000AD8B410EF38F0010AD8B417EF38F007E5
:107121000AD8B41EEF38F0010AD8B425EF38F003BD
:107131000AD8B42CEF38F09EEF38F01200036ECF6E
:10714100EF39F080B8A7EF38F0AAEF38F0010EABB5
:10715100EF38F0000E38EF3AF038EF3AF080BAB479
:10716100EF38F0B7EF38F0010EB8EF38F0000E3815
:10717100EF3AF038EF3AF082B0C1EF38F0C4EF38AF
:10718100F0010EC5EF38F0000E38EF3AF038EF3A63
:10719100F082B2CEEF38F0D1EF38F0010ED2EF38F5
:1071A100F0000E38EF3AF038EF3AF082B4DBEF3806
:1071B100F0DEEF38F0010EDFEF38F0000E38EF3A75
:1071C100F038EF3AF083B0E8EF38F0EBEF38F00148
:1071D1000EECEF38F0000E38EF3AF038EF3AF0836A
:1071E100B2F5EF38F0F8EF38F0010EF9EF38F000B2
:1071F1000E38EF3AF038EF3AF083B402EF39F00588
:10720100EF39F0010E06EF39F0000E38EF3AF038A1
:10721100EF3AF083B60FEF39F012EF39F0010E13A8
:10722100EF39F0000E38EF3AF038EF3AF082BC1C3B
:10723100EF39F01FEF39F0010E20EF39F0000E3871
:10724100EF3AF038EF3AF082BE29EF39F02CEF39FE
:10725100F0010E2DEF39F0000E38EF3AF038EF3A29
:10726100F083B836EF39F039EF39F0010E3AEF39E2
:10727100F0000E38EF3AF038EF3AF083BA43EF39C5
:10728100F046EF39F0010E47EF39F0000E38EF3AD2
:10729100F038EF3AF083BC50EF39F053EF39F00199
:1072A1000E54EF39F0000E38EF3AF038EF3AF08330
:1072B100BE5DEF39F060EF39F0010E61EF39F0009A
:1072C1000E38EF3AF038EF3AF081B06AEF39F06DED
:1072D100EF39F0010E6EEF39F0000E38EF3AF03869
:1072E100EF3AF081B277EF39F07AEF39F0010E7BA6
:1072F100EF39F0000E38EF3AF038EF3AF081B4840C
:10730100EF39F087EF39F0010E88EF39F0000E38D0
:10731100EF3AF038EF3AF081B691EF39F094EF3966
:10732100F0010E95EF39F0000E38EF3AF038EF3AF0
:10733100F081B89EEF39F0A1EF39F0010EA2EF39DB
:10734100F0000E38EF3AF038EF3AF081BAABEF398E
:10735100F0AEEF39F0010EAFEF39F0000E38EF3A31
:10736100F038EF3AF081BCB8EF39F0BBEF39F001FA
:107371000EBCEF39F0000E38EF3AF038EF3AF081F9
:10738100BEC5EF39F0C8EF39F0010EC9EF39F00091
:107391000E38EF3AF038EF3AF038EF3AF003500197
:1073A1006E026A0250000AD8B4D9EF39F038EF3AC8
:1073B100F00150000AD8B4A2EF38F0010AD8B4AFF6
:1073C100EF38F0030AD8B4BCEF38F0010AD8B4C9D9
:1073D100EF38F0070AD8B4D6EF38F0010AD8B4E391
:1073E100EF38F0030AD8B4F0EF38F0010AD8B4FD51
:1073F100EF38F00F0AD8B40AEF39F0010AD8B41700
:10740100EF39F0030AD8B424EF39F0010AD8B431C6
:10741100EF39F0070AD8B43EEF39F0010AD8B44B7E
:10742100EF39F0030AD8B458EF39F0010AD8B4653E
:10743100EF39F01F0AD8B472EF39F0010AD8B47FDE
:10744100EF39F0030AD8B48CEF39F0010AD8B499B6
:10745100EF39F0070AD8B4A6EF39F0010AD8B4B36E
:10746100EF39F0030AD8B4C0EF39F038EF3AF0122F
:10747100002650800B336E265026243A6E25AE44EA
:10748100EF3AF046EF3AF049EF3AF03A8049EF3AF5
:10749100F03A50D8B44FEF3AF051EF3AF068EF3A82
:1074A100F03A28D8A457EF3AF059EF3AF063EF3A9F
:1074B100F0000E236E000E246E000E256E000E26C7
:1074C1006E63EF3AF0258E000E266E72EF3AF000F1
:1074D1000E236E000E246E000E256E000E266E72B7
:1074E100EF3AF02A50800B331A2A502A243B6E2996
:1074F100AE7DEF3AF07FEF3AF082EF3AF03B8082D7
:10750100EF3AF03B50D8B488EF3AF08AEF3AF0A165
:10751100EF3AF03B28D8A490EF3AF092EF3AF09C82
:10752100EF3AF0000E276E000E286E000E296E0055
:107531000E2A6E9CEF3AF0298E000E2A6EABEF3ABE
:10754100F0000E276E000E286E000E296E000E2A26
:107551006EABEF3AF02750281029102A10D8A4B4A6
:10756100EF3AF0B6EF3AF0D0EF3AF0000E236E00AA
:107571000E246E000E256E000E266E800E25127FE3
:107581000E26123350261223C023F024C024F025E6
:10759100C025F026C026F048EF3CF048EF3CF03A19
:1075A10050D8A4D6EF3AF0D8EF3AF0ECEF3AF00029
:1075B1000E236E000E246E000E256E000E266E2325
:1075C100C023F024C024F025C025F026C026F048B1
:1075D100EF3CF048EF3CF03B502B6E2C6A2B1E2CFD
:1075E1001E2B4A2C2A3A502D6E2E6A2B502D262CFA
:1075F100502E227F0E2D24346E000E2E20356E2348
:10760100C02FF024C030F025C031F026C032F00088
:107611000E236E000E246E000E256E000E266E00E7
:107621000E366E000E376E000E386E000E396E008B
:107631000E3B6E58EF3BF03B50D8B422EF3BF024A9
:10764100EF3BF03DEF3BF0D8902F363036313632FC
:1076510036D890233624362536263639AE33EF3BDD
:10766100F035EF3BF036EF3BF02380D890363637DC
:1076710036383639363DEF3BF027502F5C285030F5
:1076810058295031582A503258D8A04AEF3BF04C73
:10769100EF3BF057EF3BF0398C27502F5E285030ED
:1076A1005A2950315A2A50325A57EF3BF03B2A1986
:1076B1000E3B645EEF3BF060EF3BF01CEF3BF06292
:1076C100EF3BF02F50301031103210D8B46BEF3B3C
:1076D100F06DEF3BF089EF3BF0368089EF3BF089AD
:1076E100EF3BF0D890233624362536263639AE7C4A
:1076F100EF3BF07EEF3BF07FEF3BF02380D89036FD
:10770100363736383639363406D8A0350689EF3B58
:10771100F025AE8EEF3BF090EF3BF072EF3BF09235
:10772100EF3BF0000E3B6E39AE99EF3BF09BEF3B28
:10773100F0C3EF3BF0FF0E36142B6EFF0E37142C07
:107741006EFF0E38142D6E7F0E39142E6E2B502CB9
:10775100102D102E10D8B4B0EF3BF0B2EF3BF0B6C5
:10776100EF3BF0010E3B6EC3EF3BF023A0BBEF3BC1
:10777100F0BDEF3BF0C3EF3BF0010E3B6EC3EF3BBF
:10778100F0C3EF3BF03B50D8B4C9EF3BF0CBEF3B3C
:10779100F0F3EF3BF0010E2326000E2422252226D2
:1077A1002226A0D6EF3BF0D8EF3BF0F3EF3BF023DE
:1077B100C02BF024C02CF025C02DF026C02EF02EB9
:1077C100342E322D322C322B322BC023F02CC024FC
:1077D100F02DC025F02EC026F0344A352AF3EF3BB8
:1077E100F0F3EF3BF035BEFEEF3BF0355008E134EE
:1077F10028D8A0FEEF3BF000EF3CF00DEF3CF0008D
:107801000E356E3468000E236E000E246E000E25B8
:107811006E000E266E0DEF3CF035BE1AEF3CF035D2
:107821005006E13404D8B018EF3CF01AEF3CF02ACE
:10783100EF3CF0000E356E000E346E000E236E002C
:107841000E246E000E256E000E266E000E336E2A7B
:10785100EF3CF034C03AF03AA031EF3CF033EF3C6A
:10786100F036EF3CF0258E39EF3CF0259E39EF3CA8
:10787100F0D8903A30266E3350261223C023F024DC
:10788100C024F025C025F026C026F048EF3CF012B8
:10789100003F50800B486E3F503F244E6E3EAE5429
:1078A100EF3CF056EF3CF059EF3CF04E8059EF3C85
:1078B100F04E50D8B45FEF3CF061EF3CF076EF3C16
:1078C100F04E28D8A467EF3CF069EF3CF073EF3C31
:1078D100F0000E3C6E000E3D6E000E3E6E000E3F3F
:1078E1006E73EF3CF03E8E80EF3CF0000E3C6E007C
:1078F1000E3D6E000E3E6E000E3F6E80EF3CF0437B
:1079010050800B481A435043244D6E42AE8BEF3CDE
:10791100F08DEF3CF090EF3CF04D8090EF3CF04D5E
:1079210050D8B496EF3CF098EF3CF0ADEF3CF04D01
:1079310028D8A49EEF3CF0A0EF3CF0AAEF3CF00069
:107941000E406E000E416E000E426E000E436EAA96
:10795100EF3CF0428EB5EF3CF0000E406E000E4160
:107961006E000E426E000E436E4D50D8B4BBEF3C1C
:10797100F0BDEF3CF0C7EF3CF04E50D8A4C3EF3C54
:10798100F0C5EF3CF0D3EF3CF0C7EF3CF0000E3C0C
:107991006E000E3D6E000E3E6E000E3F6E7FEF3E9E
:1079A100F07FEF3EF042503C02F3CF53F0F4CF545E
:1079B100F05350496E4A6A4B6A4C6A54504F6E50AC
:1079C1006A516A526A41503D02F3CF53F0F4CF54E9
:1079D100F053504926000E4A224B224C2254504F5C
:1079E10026000E50225122522240503E02F3CF5324
:1079F100F0F4CF54F053504926000E4A224B224C4A
:107A01002254504F26000E5022512252224BC04C7C
:107A1100F04AC04BF049C04AF0496A40503D02F378
:107A2100CF53F0F4CF54F05350492654504A22001A
:107A31000E4B22000E4C2241503C02F3CF53F0F486
:107A4100CF54F05350492654504A22000E4B220085
:107A51000E4C224BC04CF04AC04BF049C04AF04991
:107A61006A40503C02F3CF53F0F4CF54F0535049E5
:107A71002654504A22000E4B22000E4C2242503D09
:107A810002F3CF53F0F4CF54F053504F26545050DB
:107A910022000E5122000E522241503E02F3CF53DA
:107AA100F0F4CF54F053504F2654505022000E5151
:107AB10022000E522242503E02F3CF53F0F4CF5433
:107AC100F05350446E5450456E466A476A46C0476B
:107AD100F045C046F044C045F0446A44504F264545
:107AE100505022465051224750522249C044F04A38
:107AF100C045F04BC046F04CC047F0190E86EF3D33
:107B0100F0D8904732463245324432E82E81EF3D7B
:107B1100F044504F26455050224650512247505272
:107B2100224BC04CF04AC04BF049C04AF0496A4D63
:107B3100504EC044F0456A4426000E4522820E4450
:107B410024536EFF0E4520546EBEEF3DF0D8904F8A
:107B5100365036513652364CAEB1EF3DF0B3EF3DB3
:107B6100F0B4EF3DF04F80D89049364A364B364C51
:107B7100365306D8A05406BEEF3DF051AEC3EF3DDB
:107B8100F0C5EF3DF0A7EF3DF0C7EF3DF0000E4D22
:107B91006E4CAECEEF3DF0D0EF3DF0F8EF3DF0FF93
:107BA1000E4914446EFF0E4A14456EFF0E4B1446E7
:107BB1006E7F0E4C14476E4450451046104710D846
:107BC100B4E5EF3DF0E7EF3DF0EBEF3DF0010E4D99
:107BD1006EF8EF3DF04FA0F0EF3DF0F2EF3DF0F821
:107BE100EF3DF0010E4D6EF8EF3DF0F8EF3DF04D39
:107BF10050D8B4FEEF3DF000EF3EF028EF3EF0012B
:107C01000E4F26000E50225122522252A00BEF3E5F
:107C1100F00DEF3EF028EF3EF04FC044F050C0456C
:107C2100F051C046F052C047F04734473246324522
:107C310032443244C04FF045C050F046C051F04785
:107C4100C052F0534A542A28EF3EF028EF3EF05438
:107C5100BE33EF3EF0545008E15328D8A033EF3E35
:107C6100F035EF3EF03FEF3EF0000E4F6E000E504C
:107C71006E800E516E7F0E526E73EF3EF054BE4C0D
:107C8100EF3EF0545006E15304D8B04AEF3EF04CB9
:107C9100EF3EF058EF3EF0000E4F6E000E506E00BA
:107CA1000E516E000E526E000E486E73EF3EF05391
:107CB100C04EF0FF0E4F16FF0E50167F0E511600EC
:107CC1000E52164EA067EF3EF069EF3EF06CEF3EAC
:107CD100F0518E6CEF3EF0D8904E30526E73EF3E05
:107CE100F073EF3EF0485052124FC03CF050C03D8F
:0F7CF100F051C03EF052C03FF07FEF3EF0120066
:020000040020DA
:08000000FFFFFFFFFFFFFFFF00
:020000040030CA
:0E000000140E191EFF8181FF0FC00FE00F408C
:00000001FF
