:020000040000FA
:0400000007EF00F016
:0A0008005282ACED12F07BEF12F013
:100800000061626364650B05060708006CEF07F082
:1008100050C006F051C007F05FEC12F0000E35EC4E
:1008200011F0E806D8A417EF04F019EF04F032EF46
:1008300004F0000E026E320E016E97EC10F0000E06
:1008400035EC11F0E806D8A428EF04F02AEF04F004
:1008500096EF07F0000E4D6E010E4C6E96EF07F00E
:1008600096EF07F0020E35EC11F0E806D8A43BEF46
:1008700004F03DEF04F056EF04F0000E026E320E6D
:10088000016E97EC10F0020E35EC11F0E806D8A4DA
:100890004CEF04F04EEF04F096EF07F0000E4D6EB3
:1008A000050E4C6E96EF07F096EF07F0020E35EC52
:1008B00011F0E806D8A45FEF04F061EF04F07AEFDE
:1008C00004F0000E026E320E016E97EC10F0020E74
:1008D00035EC11F0E806D8A470EF04F072EF04F0E4
:1008E00096EF07F0000E4D6E060E4C6E96EF07F079
:1008F00096EF07F0000E4D6E000E4C6E96EF07F06F
:1009000096EF07F096EF07F096EF07F050C006F06D
:1009100051C007F043EC12F0000E35EC11F0E80680
:10092000D8A495EF04F097EF04F0B0EF04F0000EB8
:10093000026E320E016E97EC10F0000E35EC11F0E5
:10094000E806D8A4A6EF04F0A8EF04F0FAEF04F04C
:10095000000E4D6E020E4C6EFAEF04F0FAEF04F04A
:10096000020E35EC11F0E806D8A4B9EF04F0BBEFA5
:1009700004F0D4EF04F0000E026E320E016E97EC1C
:1009800010F0020E35EC11F0E806D8A4CAEF04F01E
:10099000CCEF04F0FAEF04F0000E4D6E050E4C6E35
:1009A000FAEF04F0FAEF04F0020E35EC11F0E8066D
:1009B000D8A4DDEF04F0DFEF04F0FAEF04F0000E4E
:1009C000026E320E016E97EC10F0020E35EC11F053
:1009D000E806D8A4EEEF04F0F0EF04F0FAEF04F02C
:1009E000000E4D6E060E4C6EFAEF04F0FAEF04F0B6
:1009F000FAEF04F0000E4D6E010E4C6E96EF07F00C
:100A000050C006F051C007F00BEC12F0000E35ECB0
:100A100011F0E806D8A40FEF05F011EF05F02AEF6A
:100A200005F0000E026E320E016E97EC10F0000E13
:100A300035EC11F0E806D8A420EF05F022EF05F020
:100A400096EF07F0000E4D6E030E4C6E96EF07F01A
:100A500096EF07F0020E35EC11F0E806D8A433EF5C
:100A600005F035EF05F04EEF05F0000E026E320E88
:100A7000016E97EC10F0020E35EC11F0E806D8A4E8
:100A800044EF05F046EF05F096EF07F0000E4D6ECF
:100A9000050E4C6E96EF07F096EF07F0020E35EC60
:100AA00011F0E806D8A457EF05F059EF05F072EF02
:100AB00005F0000E026E320E016E97EC10F0020E81
:100AC00035EC11F0E806D8A468EF05F06AEF05F000
:100AD00096EF07F0000E4D6E060E4C6E96EF07F087
:100AE00096EF07F0000E4D6E020E4C6E96EF07F07B
:100AF00096EF07F096EF07F096EF07F050C006F07C
:100B000051C007F027EC12F0000E35EC11F0E806AA
:100B1000D8A48DEF05F08FEF05F0A8EF05F0000EDB
:100B2000026E320E016E97EC10F0000E35EC11F0F3
:100B3000E806D8A49EEF05F0A0EF05F096EF07F0C9
:100B4000000E4D6E040E4C6E96EF07F096EF07F018
:100B5000020E35EC11F0E806D8A4B1EF05F0B3EFC2
:100B600005F0CCEF05F0000E026E320E016E97EC30
:100B700010F0020E35EC11F0E806D8A4C2EF05F033
:100B8000C4EF05F096EF07F0000E4D6E050E4C6EAB
:100B900096EF07F096EF07F0020E35EC11F0E8063D
:100BA000D8A4D5EF05F0D7EF05F0F0EF05F0000E73
:100BB000026E320E016E97EC10F0020E35EC11F061
:100BC000E806D8A4E6EF05F0E8EF05F096EF07F0A9
:100BD000000E4D6E060E4C6E96EF07F096EF07F086
:100BE000000E4D6E030E4C6E96EF07F096EF07F079
:100BF00096EF07F096EF07F0E8EC11F0000E35ECF9
:100C000011F0E806D8A407EF06F009EF06F022EF8E
:100C100006F0000E026E320E016E97EC10F0000E20
:100C200035EC11F0E806D8A418EF06F01AEF06F03C
:100C300096EF07F0000E4D6E010E4C6E96EF07F02A
:100C400096EF07F0020E35EC11F0E806D8A42BEF72
:100C500006F02DEF06F046EF06F0000E026E320EA3
:100C6000016E97EC10F0020E35EC11F0E806D8A4F6
:100C70003CEF06F03EEF06F096EF07F0000E4D6EEB
:100C8000050E4C6E96EF07F096EF07F0020E35EC6E
:100C900011F0E806D8A44FEF06F051EF06F06AEF26
:100CA00006F0000E026E320E016E97EC10F0020E8E
:100CB00035EC11F0E806D8A460EF06F062EF06F01C
:100CC00096EF07F0000E4D6E060E4C6E96EF07F095
:100CD00096EF07F0000E4D6E040E4C6E96EF07F087
:100CE00096EF07F096EF07F096EF07F0010E516EC2
:100CF0002C0E506E000E35EC11F0E806D8A483EFF0
:100D000006F085EF06F09EEF06F0000E026E320E42
:100D1000016E97EC10F0000E35EC11F0E806D8A447
:100D200094EF06F096EF06F0E8EF06F0000E4D6E39
:100D3000010E4C6EE8EF06F0E8EF06F0020E35EC1F
:100D400011F0E806D8A4A7EF06F0A9EF06F0C2EF6D
:100D500006F0000E026E320E016E97EC10F0020EDD
:100D600035EC11F0E806D8A4B8EF06F0BAEF06F0BB
:100D7000E8EF06F0000E4D6E050E4C6EE8EF06F043
:100D8000E8EF06F0020E35EC11F0E806D8A4CBEF40
:100D900006F0CDEF06F0E8EF06F0000E026E320E20
:100DA000016E97EC10F0020E35EC11F0E806D8A4B5
:100DB000DCEF06F0DEEF06F0E8EF06F0000E4D6E19
:100DC000060E4C6EE8EF06F0E8EF06F0E8EF06F0EE
:100DD000000E4D6E010E4C6E96EF07F0000E516E38
:100DE000960E506E000E35EC11F0E806D8A4FBEF1D
:100DF00006F0FDEF06F016EF07F0000E026E320E61
:100E0000016E97EC10F0000E35EC11F0E806D8A456
:100E10000CEF07F00EEF07F096EF07F0000E4D6EA7
:100E2000010E4C6E96EF07F096EF07F0020E35ECD0
:100E300011F0E806D8A41FEF07F021EF07F03AEF12
:100E400007F0000E026E320E016E97EC10F0020EEB
:100E500035EC11F0E806D8A430EF07F032EF07F0D8
:100E600096EF07F0000E4D6E050E4C6E96EF07F0F4
:100E700096EF07F0020E35EC11F0E806D8A443EF28
:100E800007F045EF07F05EEF07F0000E026E320E3E
:100E9000016E97EC10F0020E35EC11F0E806D8A4C4
:100EA00054EF07F056EF07F096EF07F0000E4D6E87
:100EB000060E4C6E96EF07F096EF07F0000E4D6EA3
:100EC000010E4C6E96EF07F096EF07F096EF07F0E5
:100ED00096EF07F096EF07F04CC008F04DC009F010
:100EE0000950000AD8B477EF07F096EF07F00850E2
:100EF000000AD8B408EF04F0010AD8B486EF04F071
:100F0000030AD8B400EF05F0010AD8B47EEF05F06B
:100F1000070AD8B4FCEF05F0010AD8B476EF06F062
:100F2000030AD8B4EEEF06F096EF07F012002B504C
:100F3000800B386E2B502B243A6E2AAEA2EF07F0AE
:100F4000A4EF07F0A7EF07F03A80A7EF07F03A50B9
:100F5000D8B4ADEF07F0AFEF07F0C6EF07F03A28CF
:100F6000D8A4B5EF07F0B7EF07F0C1EF07F0000E18
:100F7000286E000E296E000E2A6E000E2B6EC1EF39
:100F800007F02A8E000E2B6ED0EF07F0000E286EB1
:100F9000000E296E000E2A6E000E2B6ED0EF07F0A9
:100FA0002F50800B396E38503918D8B4DAEF07F06B
:100FB000DCEF07F0DFEF07F0388CDFEF07F02F50A2
:100FC0002F24396E2EAEE7EF07F0E9EF07F0ECEFD4
:100FD00007F03980ECEF07F03950D8B4F2EF07F0A2
:100FE000F4EF07F00BEF08F03928D8A4FAEF07F078
:100FF000FCEF07F006EF08F0000E2C6E000E2D6ED1
:10100000000E2E6E000E2F6E06EF08F02E8E000ED4
:101010002F6E15EF08F0000E2C6E000E2D6E000ED8
:101020002E6E000E2F6E15EF08F03A50395CD8B0D6
:101030001CEF08F01EEF08F049EF08F038AC23EF82
:1010400008F025EF08F029EF08F0800E381A29EF94
:1010500008F03AC03BF039C03AF03BC039F028C044
:101060003BF02CC028F03BC02CF029C03BF02DC039
:1010700029F03BC02DF02AC03BF02EC02AF03BC027
:101080002EF02BC03BF02FC02BF03BC02FF049EFD0
:1010900008F0000E3B6E3A50306E316A301E311E41
:1010A000304A312A3950326E336A3050322631504C
:1010B000332233BE65EF08F0335009E11A0E325C7B
:1010C000D8A065EF08F067EF08F0A4EF08F028500B
:1010D00029102A102B10D8A470EF08F073EF08F035
:1010E000010E74EF08F0000E3B6E000E286E000E2D
:1010F000296E000E2A6E000E2B6E39C03AF0AFEF4B
:1011000008F0A4EF08F03BA088EF08F08AEF08F0A1
:1011100090EF08F0D8903B3001093B6E94EF08F057
:10112000D8903B3294EF08F028A099EF08F09BEF9D
:1011300008F09EEF08F03B8E9EEF08F02B342B3228
:101140002A32293228323A2A39503A5CD8A0ABEFF9
:1011500008F0ADEF08F083EF08F0AFEF08F038BC0F
:10116000B4EF08F0B6EF08F0FEEF08F03A50D8A45C
:10117000BCEF08F0BEEF08F0CAEF08F0000E286ED2
:10118000000E296E000E2A6E000E2B6E58EF0AF02C
:1011900058EF0AF02C5028262D5029222E502A22B2
:1011A0002F502B222BA0D7EF08F0D9EF08F0AEEF8D
:1011B00009F03BA0DEEF08F0E0EF08F0E6EF08F002
:1011C000D8903B3001093B6EEAEF08F0D8903B32F3
:1011D000EAEF08F028A0EFEF08F0F1EF08F0F4EFE5
:1011E00008F03B8EF4EF08F02B342B322A322932F0
:1011F00028323A2AAEEF09F0AEEF09F02C50285C05
:101200002D5029582E502A582B50800A306E2F50BE
:10121000800A3058D8B00FEF09F011EF09F04FEF06
:1012200009F028C030F029C031F02AC032F02BC0BC
:1012300033F0301E311E321E331E302A000E312292
:10124000322233222C503024346E2D503120356E12
:101250002E503220366E2F503320376EFF0E34243E
:10126000286EFF0E3520296EFF0E36202A6EFF0EE7
:1012700037202B6E800E381A3B6C3B50D8A443EFBE
:1012800009F045EF09F057EF09F0010E2826000E8E
:1012900029222A222B2257EF09F057EF09F02C5070
:1012A000285E2D50295A2E502A5A2F502B5A28503A
:1012B00029102A102B10D8A460EF09F062EF09F072
:1012C000A3EF09F03B50D8A468EF09F06AEF09F0EA
:1012D000A3EF09F0000E286E000E296E000E2A6E94
:1012E000000E2B6E58EF0AF058EF0AF0A3EF09F04A
:1012F000D890283629362A362B363BAE82EF09F0B5
:1013000084EF09F087EF09F0288087EF09F03BA010
:101310008CEF09F08EEF09F092EF09F0D8803B36A0
:1013200096EF09F0D8903B3696EF09F03A50D8B4D2
:101330009CEF09F09EEF09F0A3EF09F03A06A3EF46
:1013400009F0A3EF09F02AAEA8EF09F0AAEF09F01F
:1013500078EF09F0AEEF09F0AEEF09F0000E396E4C
:101360003BAEB5EF09F0B7EF09F0D3EF09F03BC0A2
:1013700030F07F0E3016D8B4C0EF09F0C2EF09F09C
:10138000C6EF09F0010E396ED3EF09F028A0CBEFBC
:1013900009F0CDEF09F0D3EF09F0010E396ED3EF6C
:1013A00009F0D3EF09F03950D8B4D9EF09F0DBEFE9
:1013B00009F00CEF0AF0010E2826000E29222A223D
:1013C0002B222BA0E6EF09F0E8EF09F00CEF0AF072
:1013D00028C030F029C031F02AC032F02BC033F0E1
:1013E0003334333232323132303230C028F031C00F
:1013F00029F032C02AF033C02BF03A28D8B403EFDA
:101400000AF005EF0AF00CEF0AF03A2A0CEF0AF0A6
:101410000CEF0AF00CEF0AF03A28D8B412EF0AF0F9
:1014200014EF0AF01EEF0AF03A50D8A41AEF0AF0AF
:101430001CEF0AF034EF0AF01EEF0AF0000E286EDF
:10144000000E296E000E2A6E000E2B6E3A50D8A4A4
:101450002CEF0AF02EEF0AF034EF0AF0000E386E8F
:1014600034EF0AF034EF0AF03AA039EF0AF03BEF1C
:101470000AF03EEF0AF02A8E41EF0AF02A9E41EF71
:101480000AF0D8903A302B6E38AE49EF0AF04BEFA5
:101490000AF04EEF0AF02B8E4EEF0AF028C028F02B
:1014A00029C029F02AC02AF02BC02BF058EF0AF0EF
:1014B00012001250800B1F6E12501224266E11AEB5
:1014C00064EF0AF066EF0AF069EF0AF0268069EF30
:1014D0000AF02650D8B46FEF0AF071EF0AF088EFE7
:1014E0000AF02628D8A477EF0AF079EF0AF083EF04
:1014F0000AF0000E0F6E000E106E000E116E000E40
:10150000126E83EF0AF0118E000E126E92EF0AF047
:10151000000E0F6E000E106E000E116E000E126E99
:1015200092EF0AF01650800B1F1A16501624276EE1
:1015300015AE9DEF0AF09FEF0AF0A2EF0AF02780A8
:10154000A2EF0AF02750D8B4A8EF0AF0AAEF0AF0E9
:10155000C1EF0AF02728D8A4B0EF0AF0B2EF0AF0E2
:10156000BCEF0AF0000E136E000E146E000E156E26
:10157000000E166EBCEF0AF0158E000E166ECBEF45
:101580000AF0000E136E000E146E000E156E000EA3
:10159000166ECBEF0AF01350141015101610D8A4C5
:1015A000D4EF0AF0D6EF0AF0F0EF0AF0000E0F6E5B
:1015B000000E106E000E116E000E126E800E1112D3
:1015C0007F0E12121F5012120FC00FF010C010F039
:1015D00011C011F012C012F068EF0CF068EF0CF0BF
:1015E0002650D8A4F6EF0AF0F8EF0AF00CEF0BF053
:1015F000000E0F6E000E106E000E116E000E126EB9
:101600000FC00FF010C010F011C011F012C012F096
:1016100068EF0CF068EF0CF02750176E186A171E71
:10162000181E174A182A2650196E1A6A17501926BA
:1016300018501A227F0E1924206E000E1A20216ED7
:101640000FC01BF010C01CF011C01DF012C01EF026
:10165000000E0F6E000E106E000E116E000E126E58
:10166000000E226E000E236E000E246E000E256EFC
:10167000000E276E78EF0BF02750D8B442EF0BF036
:1016800044EF0BF05DEF0BF0D8901B361C361D3687
:101690001E36D8900F3610361136123625AE53EF5F
:1016A0000BF055EF0BF056EF0BF00F80D890223671
:1016B0002336243625365DEF0BF013501B5C145097
:1016C0001C5815501D5816501E58D8A06AEF0BF024
:1016D0006CEF0BF077EF0BF0258C13501B5E145062
:1016E0001C5A15501D5A16501E5A77EF0BF0272A18
:1016F000190E27647EEF0BF080EF0BF03CEF0BF040
:1017000082EF0BF01B501C101D101E10D8B48BEF75
:101710000BF08DEF0BF0A9EF0BF02280A9EF0BF08F
:10172000A9EF0BF0D8900F3610361136123625AED1
:101730009CEF0BF09EEF0BF09FEF0BF00F80D8901B
:1017400022362336243625362006D8A02106A9EFD6
:101750000BF011AEAEEF0BF0B0EF0BF092EF0BF021
:10176000B2EF0BF0000E276E25AEB9EF0BF0BBEF1A
:101770000BF0E3EF0BF0FF0E2214176EFF0E231495
:10178000186EFF0E2414196E7F0E25141A6E175052
:10179000181019101A10D8B4D0EF0BF0D2EF0BF0CC
:1017A000D6EF0BF0010E276EE3EF0BF00FA0DBEF8F
:1017B0000BF0DDEF0BF0E3EF0BF0010E276EE3EF24
:1017C0000BF0E3EF0BF02750D8B4E9EF0BF0EBEFA1
:1017D0000BF013EF0CF0010E0F26000E1022112259
:1017E000122212A0F6EF0BF0F8EF0BF013EF0CF053
:1017F0000FC017F010C018F011C019F012C01AF085
:101800001A341A3219321832173217C00FF018C0B2
:1018100010F019C011F01AC012F0204A212A13EF5B
:101820000CF013EF0CF021BE1EEF0CF0215008E17C
:101830002028D8A01EEF0CF020EF0CF02DEF0CF0BC
:10184000000E216E2068000E0F6E000E106E000E4E
:10185000116E000E126E2DEF0CF021BE3AEF0CF05F
:10186000215006E12004D8B038EF0CF03AEF0CF02C
:101870004AEF0CF0000E216E000E206E000E0F6E6F
:10188000000E106E000E116E000E126E000E1F6E16
:101890004AEF0CF020C026F026A051EF0CF053EFD9
:1018A0000CF056EF0CF0118E59EF0CF0119E59EF21
:1018B0000CF0D8902630126E1F5012120FC00FF08D
:1018C00010C010F011C011F012C012F068EF0CF04F
:1018D0001200046E0FEF0DF001B002D0929801D00B
:1018E000928878EF0DF001B002D0929A01D0928ADE
:1018F00078EF0DF001B002D0949001D0948078EF91
:101900000DF001B002D0949201D0948278EF0DF0E6
:1019100001B002D0949401D0948478EF0DF001B01E
:1019200002D0959001D0958078EF0DF001B002D0F3
:10193000959201D0958278EF0DF001B002D0959488
:1019400001D0958478EF0DF001B002D0959601D0CA
:10195000958678EF0DF001B002D0949C01D0948C64
:1019600078EF0DF001B002D0949E01D0948E78EF04
:101970000DF001B002D0959801D0958878EF0DF068
:1019800001B002D0959A01D0958A78EF0DF001B0A0
:1019900002D0959C01D0958C78EF0DF001B002D06B
:1019A000959E01D0958E78EF0DF001B002D0939006
:1019B00001D0938078EF0DF001B002D0939201D066
:1019C000938278EF0DF001B002D0939401D093840C
:1019D00078EF0DF001B002D0939601D0938678EFA6
:1019E0000DF001B002D0939801D0938878EF0DF0FC
:1019F00001B002D0939A01D0938A78EF0DF001B034
:101A000002D0939C01D0938C78EF0DF001B002D0FE
:101A1000939E01D0938E78EF0DF078EF0DF0045087
:101A2000026E036A0350000AD8B419EF0DF078EF84
:101A30000DF00250000AD8B46CEF0CF0010AD8B4D3
:101A400073EF0CF0030AD8B47AEF0CF0010AD8B4A3
:101A500081EF0CF0070AD8B488EF0CF0010AD8B473
:101A60008FEF0CF0030AD8B496EF0CF0010AD8B44B
:101A70009DEF0CF00F0AD8B4A4EF0CF0010AD8B413
:101A8000ABEF0CF0030AD8B4B2EF0CF0010AD8B4F3
:101A9000B9EF0CF0070AD8B4C0EF0CF0010AD8B4C3
:101AA000C7EF0CF0030AD8B4CEEF0CF0010AD8B49B
:101AB000D5EF0CF01F0AD8B4DCEF0CF0010AD8B453
:101AC000E3EF0CF0030AD8B4EAEF0CF0010AD8B443
:101AD000F1EF0CF0070AD8B4F8EF0CF0010AD8B413
:101AE000FFEF0CF0030AD8B406EF0DF078EF0DF01D
:101AF0001200046E1FEF0EF001B002D0899801D0E1
:101B0000898888EF0EF001B002D0899A01D0898AC5
:101B100088EF0EF001B002D08B9001D08B8088EF5F
:101B20000EF001B002D08B9201D08B8288EF0EF0C4
:101B300001B002D08B9401D08B8488EF0EF001B0FD
:101B400002D08C9001D08C8088EF0EF001B002D0D2
:101B50008C9201D08C8288EF0EF001B002D08C9470
:101B600001D08C8488EF0EF001B002D08C9601D0A9
:101B70008C8688EF0EF001B002D08B9C01D08B8C4C
:101B800088EF0EF001B002D08B9E01D08B8E88EFD3
:101B90000EF001B002D08C9801D08C8888EF0EF046
:101BA00001B002D08C9A01D08C8A88EF0EF001B07F
:101BB00002D08C9C01D08C8C88EF0EF001B002D04A
:101BC0008C9E01D08C8E88EF0EF001B002D08A90EE
:101BD00001D08A8088EF0EF001B002D08A9201D045
:101BE0008A8288EF0EF001B002D08A9401D08A84F4
:101BF00088EF0EF001B002D08A9601D08A8688EF75
:101C00000EF001B002D08A9801D08A8888EF0EF0D9
:101C100001B002D08A9A01D08A8A88EF0EF001B012
:101C200002D08A9C01D08A8C88EF0EF001B002D0DD
:101C30008A9E01D08A8E88EF0EF088EF0EF0045055
:101C4000026E036A0350000AD8B429EF0EF088EF41
:101C50000EF00250000AD8B47CEF0DF0010AD8B49F
:101C600083EF0DF0030AD8B48AEF0DF0010AD8B45F
:101C700091EF0DF0070AD8B498EF0DF0010AD8B42F
:101C80009FEF0DF0030AD8B4A6EF0DF0010AD8B407
:101C9000ADEF0DF00F0AD8B4B4EF0DF0010AD8B4CF
:101CA000BBEF0DF0030AD8B4C2EF0DF0010AD8B4AF
:101CB000C9EF0DF0070AD8B4D0EF0DF0010AD8B47F
:101CC000D7EF0DF0030AD8B4DEEF0DF0010AD8B457
:101CD000E5EF0DF01F0AD8B4ECEF0DF0010AD8B40F
:101CE000F3EF0DF0030AD8B4FAEF0DF0010AD8B4FF
:101CF00001EF0EF0070AD8B408EF0EF0010AD8B4CD
:101D00000FEF0EF0030AD8B416EF0EF088EF0EF0C6
:101D10001200096E0950D8B490EF0EF092EF0EF059
:101D2000B4EF0EF004BE99EF0EF097EF0EF0B4EFA3
:101D30000EF001C005F002C006F003C007F004C0B9
:101D400008F0051E061E071E081E052A000E0622A4
:101D50000722082205C00BF006C00CF007C00DF0EA
:101D600008C00EF0BEEF0EF001C00BF002C00CF088
:101D700003C00DF004C00EF0BEEF0EF001500210D3
:101D800003100410D8A4C7EF0EF0C9EF0EF0D5EF82
:101D90000EF0000E016E000E026E000E036E000EBD
:101DA000046E76EF0FF076EF0FF0960E0A6EE1EF0D
:101DB0000EF00A2AD8900E320D320C320B32E1EFBF
:101DC0000EF0000E0B14056E000E0C14066E000EC5
:101DD0000D14076EFE0E0E14086E05500610071047
:101DE0000810D8A4F6EF0EF0F8EF0EF0D9EF0EF0D1
:101DF00008EF0FF008EF0FF00A2A010E0B26000E75
:101E00000C220D220E22D8900E320D320C320B32E3
:101E1000000E0B14056E000E0C14066E000E0D1451
:101E2000076EFF0E0E14086E0550061007100810FE
:101E3000D8A41DEF0FF01FEF0FF0FCEF0EF02BEF0B
:101E40000FF02BEF0FF00A06D8900B360C360D363C
:101E50000E362BEF0FF00DBE30EF0FF032EF0FF01C
:101E60003CEF0FF0020E0A6038EF0FF03AEF0FF080
:101E700023EF0FF03CEF0FF00AB041EF0FF043EF0C
:101E80000FF046EF0FF00D9E46EF0FF0D8900A329C
:101E90000AC005F0066A076A086A05C008F0076A02
:101EA000066A056A05500B1206500C1207500D12F7
:101EB00008500E120950D8B460EF0FF062EF0FF027
:101EC0006CEF0FF004BE69EF0FF067EF0FF06CEFEF
:101ED0000FF00E8E6CEF0FF00BC001F00CC002F093
:101EE0000DC003F00EC004F076EF0FF012000334C3
:101EF00004340A6E0A50D8A480EF0FF082EF0FF07E
:101F00008EEF0FF0000E016E000E026E000E036EDB
:101F1000000E046E1FEF10F01FEF10F001C005F06F
:101F200002C006F003C007F004C008F0200E9EEFC8
:101F30000FF0D8900832073206320532E82E99EFBA
:101F40000FF00550096E038EFF0E0116FF0E0216EC
:101F5000FF0E0316000E0416960E0A5E0ABEB5EFBB
:101F60000FF0B3EF0FF0D9EF0FF00A50800A970F80
:101F7000D8B0BDEF0FF0BFEF0FF0CDEF0FF0000EB8
:101F8000016E000E026E000E036E000E046E1FEF57
:101F900010F01FEF10F0CDEF0FF0D89004320332A5
:101FA000023201320A3ECDEF0FF003EF10F003EFE3
:101FB00010F01F0E0A64DFEF0FF0E1EF0FF0F7EF04
:101FC0000FF0000E016E000E026E000E036E000E8A
:101FD000046E1FEF10F01FEF10F0F7EF0FF0D89026
:101FE00001360236033604360A06F7EF0FF00A50C0
:101FF000D8A4FDEF0FF0FFEF0FF0EFEF0FF003EFBE
:1020000010F003EF10F00950D8B409EF10F00BEF07
:1020100010F015EF10F0041E031E021E016C000EDE
:1020200002220322042215EF10F001C001F002C0C9
:1020300002F003C003F004C004F01FEF10F0120020
:10204000056E81EF10F0040E025CD8B02AEF10F09C
:102050002CEF10F096EF10F001C003F002C004F076
:10206000D89004320332D890043203320350BE6E4B
:1020700001C003F0020E0316033A0346BD500318D5
:10208000DF0B0318BD6E01C003F0010E0316033A07
:10209000BD500318EF0B0318BD6E96EF10F096EFCE
:1020A00010F0040E025CD8B058EF10F05AEF10F0A8
:1020B00096EF10F001C003F002C004F0D890043293
:1020C0000332D890043203320350BB6E01C003F0D8
:1020D000020E0316033A0346BA500318DF0B031827
:1020E000BA6E01C003F0010E0316033ABA5003188A
:1020F000EF0B0318BA6E96EF10F096EF10F096EF14
:1021000010F00550036E046A0450000AD8B48BEF37
:1021100010F096EF10F00350030AD8B451EF10F00E
:10212000070AD8B423EF10F096EF10F01200000E5B
:10213000056E000E046E0150045C0550800A036EAB
:102140000250800A0358D8A0A8EF10F0AAEF10F0B0
:10215000AEEF10F0EAEF10F0EAEF10F0000E076EAD
:10216000000E066E07BEBEEF10F0900E065C010E6C
:102170000758D8A0BEEF10F0C0EF10F0C4EF10F079
:10218000D7EF10F0D7EF10F000F0064A072A07BE8D
:10219000D3EF10F0900E065C010E0758D8A0D3EFD5
:1021A00010F0D5EF10F0C4EF10F0D7EF10F0044AA4
:1021B000052A0150045C0550800A036E0250800A13
:1021C0000358D8A0E6EF10F0E8EF10F0AEEF10F0F3
:1021D000EAEF10F01200949C948E3CC001F03DC0D8
:1021E00002F03EC003F03FC004F0010E89EC0EF097
:1021F00001C013F002C014F003C015F004C016F0C3
:10220000000E0F6E1B0E106EB70E116E4B0E126E7F
:1022100059EC0AF00FC028F010C029F011C02AF0C4
:1022200012C02BF0000E2C6E000E2D6E800E2E6E46
:10223000BF0E2F6E97EC07F028C040F029C041F088
:102240002AC042F02BC043F040C001F041C002F070
:1022500042C003F043C004F077EC0FF00150AF6EC2
:10226000200EAC6E900EAB6E1200036E61EF11F09B
:1022700084B03DEF11F040EF11F0010E41EF11F08D
:10228000000E7AEF11F07AEF11F084B24AEF11F0FC
:102290004DEF11F0010E4EEF11F0000E7AEF11F03C
:1022A0007AEF11F084B457EF11F05AEF11F0010EEC
:1022B0005BEF11F0000E7AEF11F07AEF11F07AEF88
:1022C00011F00350016E026A0250000AD8B46BEF9D
:1022D00011F07AEF11F00150000AD8B438EF11F084
:1022E000010AD8B445EF11F0030AD8B452EF11F047
:1022F0007AEF11F0120094808CEF11F0CA90CA921C
:10230000A6EF11F0CA80CA92A6EF11F0CA80CA8265
:10231000A6EF11F0A6EF11F005C007F006C008F017
:102320000850000AD8B497EF11F0A6EF11F007504B
:10233000010AD8B47EEF11F0050AD8B482EF11F08B
:10234000140AD8B486EF11F0A6EF11F0AA0ECB6EE6
:10235000BD9EBD9CBD86BD84000EBE6E000EBB6ED4
:10236000BA98BA9ABD9ABD98BA90BA92BA84BA8607
:102370009E92CA84949094921200036ED2EF11F050
:10238000170ED56EF28AD58EC40ED56E000ED66E9F
:10239000000ED76EF294F28EE7EF11F0E7EF11F036
:1023A000E7EF11F00350016E026A0250000AD8B440
:1023B000DCEF11F0E7EF11F00150000AD8B4E7EFBD
:1023C00011F0010AD8B4C0EF11F0E7EF11F01200DC
:1023D000000E016E050E79EC0DF0000E016E060E7A
:1023E00079EC0DF0000E016E070E79EC0DF0000E89
:1023F000016E080E79EC0DF0000E026E000E016EFB
:10240000030E20EC10F0000E026E000E016E040EA2
:1024100020EC10F01200000E016E050E79EC0DF0AC
:10242000010E016E060E79EC0DF0010E016E070E25
:1024300079EC0DF0000E016E080E79EC0DF006C07F
:1024400001F007C002F0040E20EC10F01200010EA3
:10245000016E050E79EC0DF0000E016E060E79ECA2
:102460000DF0000E016E070E79EC0DF0010E016EFD
:10247000080E79EC0DF006C001F007C002F0040E62
:1024800020EC10F01200010E016E050E79EC0DF03B
:10249000000E016E060E79EC0DF0010E016E070EB6
:1024A00079EC0DF0000E016E080E79EC0DF006C00F
:1024B00001F007C002F0040E20EC10F01200000E34
:1024C000016E050E79EC0DF0010E016E060E79EC31
:1024D0000DF0000E016E070E79EC0DF0010E016E8D
:1024E000080E79EC0DF006C001F007C002F0040EF2
:1024F00020EC10F01200560EF66E260EF76E000E4F
:10250000F86E0900F5CF50F00900F5CF51F000EE5C
:1025100044F00A0EEE6AE806FDE152905292000E77
:10252000F86E0001F9EF12F013EC13F0E80E016EF3
:10253000030E026E000E036E000E046E000E066E99
:10254000100E056E7BEC11F01EEC13F0000EBDECCE
:1025500011F028EC13F012000600F2A4B2EF12F012
:10256000B4EF12F0C1EF12F0010E4826000E49221E
:102570004A224B22F294000ED66E000ED76EC1EFA7
:1025800012F052921100000E016E060E69EC0CF072
:10259000000E016E050E69EC0CF0000E016E080EC7
:1025A00069EC0CF0000E016E070E69EC0CF01200E5
:1025B000000E3C6E960E3D6E000E3E6E000E3F6E9F
:1025C000EBEC10F0000E026E640E016E97EC10F052
:1025D0001200000E016E040E69EC0CF0C3EC12F058
:1025E00008EC13F0D8EC12F0000E4D6E040E4C6E99
:1025F0001200AFCF4EF04F6A94EC12F0E9EC12F0FB
:1026000006EC04F000EF13F000EF13F007EF00F01A
:10261000000E016E0B0E69EC0CF0000E016E0B0E3D
:1026200079EC0DF012009280928292849286010ED3
:10263000C26E0B0EC16EAB0EC06E12003F0E926EDC
:102640009368CF0E946E9568968096829684120059
:08265000B60ECD6E12002C0144
:020000040020DA
:08000000FFFFFFFFFFFFFFFF00
:020000040030CA
:0E000000140E191EFF8181FF0FC00FE00F408C
:00000001FF
